:0300000002004CAF
:100008000000E2FBEAF2802C0000E0FBEAF080242A
:10001800E6B50202EBF62200E2B50202EBF222009C
:10002800E0B50202EBF02230F6E0A88220F5D3EA30
:10003800C6F582228B822230F6E6A88220F5D98086
:01004800CFE8
:1000A500750800750900750AE1750BACE4F50CF5EA
:1000B5000DF50EF50F751003751105751204751301
:0400C50003020049E9
:0300490002075655
:1000C90075C6807E007F00E59D20E60F74012EFC39
:1000D900E43FFD8C068D07EC4D70EC2275F1004371
:1000E900F30C7586C075C40275C50B75C2D8228517
:1000F90082C1E58630E1FB5386FD22E5865404F58D
:100109008222E58630E2FB85C18222E50830E004DF
:100119007F0180027F00906180740C4FF0E5083008
:10012900E1047F2080027F0090618974404FF022B2
:10013900AE82AF83E0906172F08E828F83A3E090EC
:100149006173F08E828F83A3A3E0906174F08E8235
:100159008F83A3A3A3E0906175F074042EFCE43FA0
:10016900FD8C828D83E090616AF074052EFAE43F7C
:10017900FB8A828B83E090616BF074062EF582E432
:100189003FF583E090616CF074072EF582E43FF54A
:1001990083E090616DF074082EF582E43FF583E009
:1001A90090616EF074092EF582E43FF583E0906169
:1001B9006FF0740A2EF582E43FF583E0906170F0E8
:1001C900740B2EF582E43FF583E0906171F08C8227
:1001D9008D83E0FC7F008A828B83E0FEE44CF50A84
:1001E900EE4FF50BE50A450B7006750AE1750BAC88
:1001F90022AF82C007120114D0079061FA7409F086
:100209009061B27415F09061AEE4F09061AB743F07
:10021900F09061AC7455F09061B57410F09061B6CE
:10022900740EF09061B77403F0BF0B0050027F0B9E
:10023900EF24E550027F1AEF24F575F005A4240B8D
:1002490090618FF090619074F5F075E1ED75E1E3DF
:10025900227E80C0061201FAD0067D007F009061DF
:1002690099E020E00F74012DFBE43FFC8B058C071E
:10027900EB4C70EA7F00906198E0FDC3EE64808DDD
:10028900F063F08095F050028D06EF541F700375EE
:10029900E1ED7CB07D041CBCFF011DEC4D70F70F36
:1002A900BFC80040D175E1ED8E8222AE82AF837D59
:1002B90000E528248250047582022275E1EEAC28FB
:1002C9000C0C8CD97C00C3EC9528500EEC2EF582D1
:1002D900E43FF583E0F5D90C80EC759100E5083031
:1002E900E2047FEA80027FE98FE17E007F00E591E9
:1002F90030E1047D01800E0EBE00010FC3EE946053
:10030900EF94EA40E975E1E3ED60047F0080027F44
:10031900018F8222AE0AAF0B8E04EF5401A2E0CC0A
:1003290013CC13CCFDEE6204EF6205EDC313FE7F1F
:1003390000EC6206ED62078E05E46206ED6207EEE7
:100349004F60068E048F0580047CE17DAC8C0A8D9C
:100359000B8E8222AF827E00C3EE9F50107CD07D2F
:10036900071CBCFF011DEC4D70F70E80EB22AE821D
:10037900AF837D01E51424825014AA16AB17AC187B
:100389008A828B838CF0E4120BCF75820222E508F6
:1003990020E2030204F38E828F83E0FC74205CF573
:1003A9001DE4F51EFA74022EF8E43FF98A1C851043
:1003B9001F751A008514288E828F83C007C006C056
:1003C90002C001C0001202B4858219D000D001D048
:1003D90002D006D007051EE51E7003751EFFE5193C
:1003E9006057C007C006C002C001C00012031DAC9F
:1003F90082D000D001D002D006D007851FF005F0C9
:100409007401800225E0D5F0FB145CF582C007C0B9
:1004190006C002C001C00012035DD000D001D002A5
:10042900D006D007C3E51F95115002051F051AC351
:10043900E512951A40030203BDE519601B851620D4
:100449008517218518228520828521838522F0E55B
:100459001E120BCF85198222E51D701B851620857A
:1004690017218518228520828521838522F0E51EA2
:10047900120BCF7582002288828983E0F582C0073A
:10048900C006C002C001C0001206EBE582D000D050
:1004990001D002D006D0076026EA6008050CE4B551
:1004A9000C02050D851620851721851822852082C5
:1004B9008521838522F0E51E120BCF758200220566
:1004C9001CAA1CC3E513951C40030203B7050EE4DF
:1004D900B50E02050FAA16AB17AC188A828B838C4E
:1004E900F0E51E120BCF75820122AC150C8C1B7B1B
:1004F90000C3EB951B50348514288E828F83C00767
:10050900C006C0031202B4AD82D003D006D007A83A
:1005190016A917AA188B040C888289838AF0EC1211
:100529000BCFED7003F582220B80C68D8222E5E99F
:1005390020E20475820022E5D9FF6005EF2480508E
:100549000A75E1ED75E900758200227E00C3EE9F10
:1005590050317C007D0090619BE0701774012CFA8A
:10056900E43DFB8A048B05EA4B70EB75E1EDF5E997
:10057900F58222EE2401F582E43400F583E5D9F011
:100589000E80CA75E90090619BE0600375E1ED8F0B
:100599008222AF827582FEC0071200F8AE250E8E48
:1005A90082C0061200F8D006D0078F82C007C006A5
:1005B9001200F8D006D007EE62077E00C3EE95253B
:1005C900502CEE2523FCE43524FD8C828D83E0F547
:1005D90082C007C006C005C0041200F8D004D005C7
:1005E900D006D0078C828D83E062070E80CE8F8281
:1005F9000200F8AF828F060E74846EFD7582FEC00C
:1006090007C006C0051200F8D005D0068E82C005C5
:100619001200F87582841200F8D005D0078F067F82
:1006290000EE24FEFBEF34FFFCEB2401FBEC34006D
:10063900FC8B828C83E0F582C007C006C005C0042C
:10064900C0031200F8D003D004D005D006D0078B20
:10065900828C83E0FBED6203EE24FFFCEF34FFFDA7
:10066900EC2401FCED3400FD8C828D83E0F582C021
:1006790007C006C005C004C0031200F8D003D004A7
:10068900D005D006D0078C828D83E06BFD7C008C71
:10069900027B0074022AFAE43BFBC3EA9EEB648006
:1006A9008FF063F08095F05034EC2401FAE43400C3
:1006B900FB8A828B83E0F582C007C006C005C004AF
:1006C900C003C0021200F8D002D003D004D005D074
:1006D90006D0078A828B83E062050C80B28D820284
:1006E90000F8AF827D007E00C007C006C005120574
:1006F90037AC82D005D006D007BC0200403DBC050E
:10070900004027900001E0FB530307BB021C8C0348
:10071900EB142401F582E43400F583E030E70B9013
:100729000003E0B50704758201228C82C007C00668
:10073900C0051205FCD005D006D0070DBD00010E7D
:10074900C3ED9470EE9417409F758200227F007E5E
:10075900007D00C007C006C0051200C91200E5905F
:10076900012974FFF090012AF090012BF090012CDF
:10077900F090012DE4F090012EF090012FF09001FE
:1007890030F0900131F0900132F0900133F0900196
:1007990034F090012912013975820B1201FA900186
:1007A90019E4F090011A740AF0752319752401757A
:1007B900250275828012059BD005D006D007C00797
:1007C900C006C005120537AC82D005D006D007BCDB
:1007D900020040118C82C007C006C0051205FCD07A
:1007E90005D006D007C007C006C005120104E5827E
:1007F900D005D006D00760C6C007C006C0051201E3
:100809000BAC82D005D006D007BF0002800ABF0119
:1008190002800CBF02A88019BCFEA37F01809F8CB7
:10082900067D007F02EC6005EC247650917F008004
:100839008D8D030DEB248DF582E43400F583ECF006
:100849008E037C000BBB00010C8D017A00C3E99B70
:10085900EA64808CF063F08095F050030207C7903A
:10086900008DE0FC8E037A00C3EA9E5010EA248DC5
:10087900F582E43400F583E062030A80EBEE248D0F
:10088900F582E43400F583E0FAEBB5020280030255
:100899000BCABC0125900119E4F090011A740AF001
:1008A900752319752401752502758281C006C00555
:1008B90012059BD005D006020BCABC0228BE020055
:1008C900402390008EE0F582C006C0051201FA753A
:1008D900231975240175250075828212059BD0059F
:1008E900D006020BCABC03417526008E031B8B146C
:1008F90075162675170075184085091590008EC064
:1009090006C005120377AB82900119EBF090011A2A
:10091900E526F07523197524017525027582831260
:10092900059BD005D006020BCABC0430BE020040AC
:100939002B90008EE0600543080180035308FEC038
:1009490006C0051201147523197524017525007552
:10095900828212059BD005D006020BCABC0525BEB2
:100969000D00402090008EC006C005120139752384
:100979001975240175250075828212059BD005D051
:1009890006020BCABC0632BE0300402D90008EE061
:10099900FB74075BF50890008FE0F509C006C005F8
:1009A90012011475231975240175250075828212A7
:1009B900059BD005D006020BCABC07028003020AB8
:1009C90050900119E508F090011AE509F09061725B
:1009D900E090011BF0906173E090011CF09061744C
:1009E900E090011DF0906175E090011EF090616A40
:1009F900E090011FF090616BE0900120F090616C34
:100A0900E0900121F090616DE0900122F090616E1B
:100A1900E0900123F090616FE0900124F090617003
:100A2900E0900125F0906171E0900126F07523199D
:100A390075240175250E758285C006C00512059BB2
:100A4900D005D006020BCABC084ABE020040457553
:100A590027008E031B1B8B1490008EE0F51575166D
:100A69002775170075184090008FC006C00512033E
:100A790077AB82900119EBF090011AE527F0752305
:100A89001975240175250275828312059BD005D03D
:100A990006020BCABC0927BE0200402290008EE064
:100AA900906190F07523197524017525007582826E
:100AB900C006C00512059BD005D006020BCABC0AA8
:100AC90037BE0200403290008EE0600A90618AE0F1
:100AD90043E004F0800890618AE053E0FBF075235D
:100AE90019752401752500758282C006C005120595
:100AF9009BD005D006020BCABC0B36AB0C90011972
:100B0900EBF0AB0D90011AEBF0AB0E90011BEBF083
:100B1900AB0F90011CEBF0752319752401752504A1
:100B2900758286C006C00512059BD005D006020B4A
:100B3900CABC0C36BE0200403190008EE0F582C07E
:100B490006C00512025AAB8290008EE0900119F09E
:100B590090011AEBF0752319752401752502758228
:100B69008712059BD005D0068057BC0D54BE0500E1
:100B7900404F90008EE0FC90008FE0FB900090E0E9
:100B8900FA900091E0F9EB24F750027B08C3EB9C43
:100B990050028B04EA24F750027A08E924F850023B
:100BA90079078C108B118A12891375231975240101
:100BB900752500758282C006C00512059BD005D037
:060BC900067F000207C7D1
:06007B00E478FFF6D8FD59
:100059007900E94400601B7A00900BEE783575A0B1
:1000690001E493F2A308B8000205A0D9F4DAF27505
:02007900A0FFE6
:100BCF0020F71130F6138883A88220F509F6A88341
:0B0BDF007583002280FEF280F5F022FA
:100081007800E84400600A790175A000E4F309D81A
:10009100FC7834E84401600C7902900001E4F0A39B
:0400A100D8FCD9FAB4
:0D004C00758128120BEAE58260030200496D
:040BEA0075820022EE
:00000001FF
