:0300000002004CAF
:200008000000E2FBEAF2802C0000E0FBEAF08024E6B50202EBF62200E2B50202EBF22200DE
:20002800E0B50202EBF02230F6E0A88220F5D3EAC6F582228B822230F6E6A88220F5D980EE
:01004800CFE8
:0900A5007508007509000200490C
:030049000203AA05
:2000AE0075C6807E007F00E59D20E60F74012EFCE43FFD8C068D07EC4D70EC2275F100439E
:2000CE00F30C7586C075C40275C50B75C2D8228582C1E58630E1FB5386FD22E5865404F5B8
:2000EE008222E58630E2FB85C18222E50830E0047F0180027F00906180740C4FF0E508301D
:20010E00E1047F2080027F0090618974404FF022AE82AF83E0906172F08E828F83A3E090F3
:20012E006173F08E828F83A3A3E0906174F08E828F83A3A3A3E0906175F08E828F83A3A3A7
:20014E00A3A3E090616AF08E828F83A3A3A3A3A3E090616BF074062EF582E43FF583E09079
:20016E00616CF074072EF582E43FF583E090616DF074082EF582E43FF583E090616EF0746C
:20018E00092EF582E43FF583E090616FF0740A2EF582E43FF583E0906170F0740B2EF582C5
:2001AE00E43FF583E0906171F022AF82C0071200F9D0079061FA7409F09061B27415F09064
:2001CE0061AEE4F09061AB743FF09061AC7455F09061B57410F09061B6740EF09061B7744A
:2001EE0003F0BF0B0050027F0BEF24E550027F1AEF24F575F005A4240B90618FF09061903F
:20020E0074F5F075E1ED75E1E322AE82AF837D00E517248250047582022275E1EEAC170CD6
:20022E000C8CD97C00C3EC9517500EEC2EF582E43FF583E0F5D90C80EC759100E50830E2B3
:20024E00047FEA80027FE98FE17E007F00E59130E1047D01800E0EBE00010FC3EE9460EFC5
:20026E0094EA40E975E1E3ED60047F0080027F018F8222AE82AF837D01E50A24825014AA08
:20028E000CAB0DAC0E8A828B838CF0E41207D975820222AC0B0C8C0F7B00C3EB950F50349C
:2002AE00850A178E828F83C007C006C003120218AD82D003D006D007A80CA90DAA0E8B048C
:2002CE000C888289838AF0EC1207D9ED7003F582220B80C68D8222E5E920E204758200222E
:2002EE00E5D9FF6005EF2480500A75E1ED75E900758200227E00C3EE9F50317C007D00904F
:20030E00619BE0701774012CFAE43DFB8A048B05EA4B70EB75E1EDF5E9F58222EE2401F545
:20032E0082E43400F583E5D9F00E80CA75E90090619BE0600375E1ED8F8222AF827582FECE
:20034E00C0071200DDAE120E8E82C0061200DDD006D0078F82C007C0061200DDD006D0075F
:20036E00EE62077E00C3EE9512502CEE2510FCE43511FD8C828D83E0F582C007C006C005B9
:20038E00C0041200DDD004D005D006D0078C828D83E062070E80CE8F820200DD7513007E8D
:2003AE00008E14C0061200AE1200CA90012974FFF090012AF090012BF090012CF090012D4C
:2003CE00E4F090012EF090012FF0900130F0900131F0900132F0900133F0900134F09001CC
:2003EE002912011E75820B1201B8900119E4F090011A7404F0751019751101751202758292
:20040E0080120349D006C0061202E5AC82D006BC020050030205197582FEC006C004120095
:20042E00DDD0048C030B8B82C004C0031200DD7582841200DDD003D0046303848C027C00DB
:20044E00EA24FEF8EC34FFF9E82401F8E93400F988828983E0F582C004C003C002C001C020
:20046E00001200DDD000D001D002D003D00488828983E0F8EB6200EA24FFFBEC34FFFDEB1B
:20048E002401FBED3400FD8B828D83E0F582C005C004C003C002C0001200DDD000D002D06D
:2004AE0003D004D005D0068B828D83E068FD7B008B007900740228F8E439F9C3E89AE9648D
:2004CE00808CF063F08095F05038EB2401F8E43400F988828983E0F582C006C005C004C09D
:2004EE0003C002C001C0001200DDD000D001D002D003D004D005D00688828983E062050B8C
:20050E0080AE8D82C0061200DDD006C0061200E9E582D0067003020414C0061200F0AF8281
:20052E00D006E4B5130280117401B5130280187402B51302802A020414BFFE028003020475
:20054E00147513010204148F06751400751302EF6008EF247640030204147513000204144F
:20056E00AD140514ED248DF582E43400F583EFF08E057F000DBD00010FAB147C00C3EB9D9D
:20058E00EC64808FF063F08095F0500302041490008DE0FF8E057C00C3EC9E5010EC248DE4
:2005AE00F582E43400F583E062050C80EBEE248DF582E43400F583E0FCEDB50402800302B9
:2005CE0007D3BF0121900119E4F090011A7404F0751019751101751202758281C0061203C0
:2005EE0049D0060207D3BF0224BE0200401F90008EE0F582C0061201B8751019751101754E
:20060E001200758282120349D0060207D3BF033D7515008E051D8D0A750C15750D00750EC6
:20062E004085090B90008EC006120281AD82900119EDF090011AE515F07510197511017575
:20064E001202758283120349D0060207D3BF042CBE0200402790008EE060054308018003A6
:20066E005308FEC0061200F9751019751101751200758282120349D0060207D3BF0521BE6A
:20068E000D00401C90008EC00612011E751019751101751200758282120349D0060207D399
:2006AE00BF062EBE0300402990008EE0FD74075DF50890008FE0F509C0061200F9751019D3
:2006CE00751101751200758282120349D0060207D3BF07028003020768900119E508F090A2
:2006EE00011AE509F0906172E090011BF0906173E090011CF0906174E090011DF0906175EA
:20070E00E090011EF090616AE090011FF090616BE0900120F090616CE0900121F090616D57
:20072E00E0900122F090616EE0900123F090616FE0900124F0906170E0900125F090617117
:20074E00E0900126F075101975110175120E758285C006120349D006806BBF0845BE02001D
:20076E0040407516008E051D1D8D0A90008EE0F50B750C16750D00750E4090008FC006122B
:20078E000281AD82900119EDF090011AE516F0751019751101751202758283120349D00620
:2007AE008023BF0920BE0200401B90008EE0906190F0751019751101751200758282C0062B
:0B07CE00120349D0067513000204144A
:06007B00E478FFF6D8FD59
:200059007900E94400601B7A009007F8783575A001E493F2A308B8000205A0D9F4DAF27519
:02007900A0FFE6
:1B07D90020F71130F6138883A88220F509F6A8837583002280FEF280F5F0221F
:200081007800E84400600A790175A000E4F309D8FC7834E84401600C7902900001E4F0A346
:0400A100D8FCD9FAB4
:0D004C007581171207F4E582600302004978
:0407F40075820022E8
:00000001FF
