:0300000002004CAF
:100008000000E2FBEAF2802C0000E0FBEAF080242A
:10001800E6B50202EBF62200E2B50202EBF222009C
:10002800E0B50202EBF02230F6E0A88220F5D3EA30
:10003800C6F582228B822230F6E6A88220F5D98086
:01004800CFE8
:0300490002038926
:0D004C007581171207D3E582600302004999
:100059007900E94400601B7A009007D7783575A0CC
:1000690001E493F2A308B8000205A0D9F4DAF27505
:02007900A0FFE6
:06007B00E478FFF6D8FD59
:100081007800E84400600A790175A000E4F309D81A
:10009100FC7834E84401600C7902900001E4F0A39B
:0400A100D8FCD9FAB4
:0900A5007508007509000200490C
:1000AE0075C6807E007F00E59D20E60F74012EFC54
:1000BE00E43FFD8C068D07EC4D70EC2275F100438C
:1000CE00F30C7586C075C40275C50B75C2D8228532
:1000DE0082C1E58630E1FB5386FD22E5865404F5A8
:1000EE008222E58630E2FB85C18222E50830E004FB
:1000FE007F0180027F00906180740C4FF0E5083024
:10010E00E1047F2080027F0090618974404FF022CD
:10011E00AE82AF83E0906172F08E828F83A3E09007
:10012E006173F08E828F83A3A3E0906174F08E8250
:10013E008F83A3A3A3E0906175F08E828F83A3A318
:10014E00A3A3E090616AF08E828F83A3A3A3A3A3DF
:10015E00E090616BF074062EF582E43FF583E0903B
:10016E00616CF074072EF582E43FF583E090616DCB
:10017E00F074082EF582E43FF583E090616EF07422
:10018E00092EF582E43FF583E090616FF0740A2E3C
:10019E00F582E43FF583E0906170F0740B2EF582EA
:1001AE00E43FF583E0906171F022AF82C007120048
:1001BE00F9D0079061FA7409F09061B27415F0905D
:1001CE0061AEE4F09061AB743FF09061AC7455F0A9
:1001DE009061B57410F09061B6740EF09061B774C2
:1001EE0003F0BF0B0050027F0BEF24E550027F1A85
:1001FE00EF24F575F005A4240B90618FF0906190BB
:10020E0074F5F075E1ED75E1E322AE82AF837D000A
:10021E00E517248250047582022275E1EEAC170CAC
:10022E000C8CD97C00C3EC9517500EEC2EF582E4A5
:10023E003FF583E0F5D90C80EC759100E50830E2CE
:10024E00047FEA80027FE98FE17E007F00E5913036
:10025E00E1047D01800E0EBE00010FC3EE9460EF2F
:10026E0094EA40E975E1E3ED60047F0080027F01CE
:10027E008F8222AE82AF837D01E50A24825014AABA
:10028E000CAB0DAC0E8A828B838CF0E41207B87522
:10029E00820222AC0B0C8C0F7B00C3EB950F5034FB
:1002AE00850A178E828F83C007C006C003120218FC
:1002BE00AD82D003D006D007A80CA90DAA0E8B04D0
:1002CE000C888289838AF0EC1207B8ED7003F582F0
:1002DE00220B80C68D8222E5E920E204758200227F
:1002EE00E5D9FF6005EF2480500A75E1ED75E90050
:1002FE00758200227E00C3EE9F5010EE2401F5821F
:10030E00E43400F583E5D9F00E80EB75E9009061D9
:10031E009BE0600375E1ED8F8222AF827582FEC095
:10032E00071200DDAE120E8E82C0061200DDD00660
:10033E00D0078F82C007C0061200DDD006D007EEB0
:10034E0062077E00C3EE9512502CEE2510FCE435AC
:10035E0011FD8C828D83E0F582C007C006C005C0FA
:10036E00041200DDD004D005D006D0078C828D8318
:10037E00E062070E80CE8F820200DD7513007E00D4
:10038E008E14C0061200AE1200CA90012974FFF03E
:10039E0090012AF090012BF090012CF090012DE4A9
:1003AE00F090012EF090012FF0900130F09001317D
:1003BE00F0900132F0900133F0900134F090012969
:1003CE0012011E75820B1201B8900119E4F0900112
:1003DE001A7403F075101975110175120275828069
:1003EE00120328D006C0061202E5AC82D006BC026B
:1003FE000050030204F87582FEC006C0041200DD30
:10040E00D0048C030B8B82C004C0031200DD7582F6
:10041E00841200DDD003D0046303848C027C00EAD6
:10042E0024FEF8EC34FFF9E82401F8E93400F988E9
:10043E00828983E0F582C004C003C002C001C000FF
:10044E001200DDD000D001D002D003D00488828902
:10045E0083E0F8EB6200EA24FFFBEC34FFFDEB24B3
:10046E0001FBED3400FD8B828D83E0F582C005C06B
:10047E0004C003C002C0001200DDD000D002D003C1
:10048E00D004D005D0068B828D83E068FD7B008B77
:10049E00007900740228F8E439F9C3E89AE9648017
:1004AE008CF063F08095F05038EB2401F8E43400C2
:1004BE00F988828983E0F582C006C005C004C003B6
:1004CE00C002C001C0001200DDD000D001D002D0A9
:1004DE0003D004D005D00688828983E062050B80A4
:1004EE00AE8D82C0061200DDD006C0061200E9E510
:1004FE0082D00670030203F3C0061200F0AF82D062
:10050E0006E4B5130280117401B51302801874024B
:10051E00B51302802A0203F3BFFE0280030203F327
:10052E007513010203F38F06751400751302EF6045
:10053E0008EF247640030203F37513000203F3ADB4
:10054E00140514ED248DF582E43400F583EFF08E5E
:10055E00057F000DBD00010FAB147C00C3EB9DECBD
:10056E0064808FF063F08095F050030203F39000E7
:10057E008DE0FF8E057C00C3EC9E5010EC248DF5B3
:10058E0082E43400F583E062050C80EBEE248DF5F9
:10059E0082E43400F583E0FCEDB50402800302072B
:1005AE00B2BF0121900119E4F090011A7403F075A5
:1005BE001019751101751202758281C00612032879
:1005CE00D0060207B2BF0224BE0200401F90008E6A
:1005DE00E0F582C0061201B8751019751101751279
:1005EE0000758282120328D0060207B2BF033D7542
:1005FE0015008E051D8D0A750C15750D00750E40B6
:10060E0085090B90008EC006120281AD82900119F1
:10061E00EDF090011AE515F07510197511017512AE
:10062E0002758283120328D0060207B2BF042CBEC5
:10063E000200402790008EE06005430801800353BE
:10064E0008FEC0061200F975101975110175120019
:10065E00758282120328D0060207B2BF0521BE0D95
:10066E0000401C90008EC00612011E7510197511E7
:10067E0001751200758282120328D0060207B2BFDE
:10068E00062EBE0300402990008EE0FD74075DF536
:10069E000890008FE0F509C0061200F97510197563
:1006AE001101751200758282120328D0060207B25C
:1006BE00BF07028003020747900119E508F0900179
:1006CE001AE509F0906172E090011BF0906173E001
:1006DE0090011CF0906174E090011DF0906175E046
:1006EE0090011EF090616AE090011FF090616BE046
:1006FE00900120F090616CE0900121F090616DE02E
:10070E00900122F090616EE0900123F090616FE015
:10071E00900124F0906170E0900125F0906171E0FD
:10072E00900126F075101975110175120E758285DE
:10073E00C006120328D006806BBF0845BE020040DB
:10074E00407516008E051D1D8D0A90008EE0F50B6E
:10075E00750C16750D00750E4090008FC0061202B6
:10076E0081AD82900119EDF090011AE516F0751029
:10077E0019751101751202758283120328D0068035
:10078E0023BF0920BE0200401B90008EE0906190B6
:10079E00F0751019751101751200758282C006125E
:0A07AE000328D0067513000203F3C0
:1007B80020F71130F6138883A88220F509F6A8835C
:0B07C8007583002280FEF280F5F02215
:0407D3007582002209
:00000001FF
