:0300000002004CAF
:100008000000E2FBEAF2802C0000E0FBEAF080242A
:10001800E6B50202EBF62200E2B50202EBF222009C
:10002800E0B50202EBF02230F6E0A88220F5D3EA30
:10003800C6F582228B822230F6E6A88220F5D98086
:01004800CFE8
:0F00A500750800750900750AE1750BAC0200497A
:030049000206B2FA
:1000B40075C6807E007F00E59D20E60F74012EFC4E
:1000C400E43FFD8C068D07EC4D70EC2275F1004386
:1000D400F30C7586C075C40275C50B75C2D822852C
:1000E40082C1E58630E1FB5386FD22E5865404F5A2
:1000F4008222E58630E2FB85C18222E50830E004F5
:100104007F0180027F00906180740C4FF0E508301D
:10011400E1047F2080027F0090618974404FF022C7
:10012400AE82AF83E0906172F08E828F83A3E09001
:100134006173F08E828F83A3A3E0906174F08E824A
:100144008F83A3A3A3E0906175F074042EFCE43FB5
:10015400FD8C828D83E090616AF074052EFAE43F91
:10016400FB8A828B83E090616BF074062EF582E447
:100174003FF583E090616CF074072EF582E43FF55F
:1001840083E090616DF074082EF582E43FF583E01E
:1001940090616EF074092EF582E43FF583E090617E
:1001A4006FF0740A2EF582E43FF583E0906170F0FD
:1001B400740B2EF582E43FF583E0906171F08C823C
:1001C4008D83E0FC7F008A828B83E0FEE44CF50A99
:1001D400EE4FF50BE50A450B7006750AE1750BAC9D
:1001E40022AF82C0071200FFD0079061FA7409F0B1
:1001F4009061B27415F09061AEE4F09061AB743F1D
:10020400F09061AC7455F09061B57410F09061B6E3
:10021400740EF09061B77403F0BF0B0050027F0BB3
:10022400EF24E550027F1AEF24F575F005A4240BA2
:1002340090618FF090619074F5F075E1ED75E1E3F4
:1002440022AE82AF837D00E51C24825004758202B5
:100254002275E1EEAC1C0C0C8CD97C00C3EC951C13
:10026400500EEC2EF582E43FF583E0F5D90C80ECDA
:10027400759100E50830E2047FEA80027FE98FE1AE
:100284007E007F00E59130E1047D01800E0EBE000A
:10029400010FC3EE9460EF94EA40E975E1E3ED6089
:1002A400047F0080027F018F8222AE0AAF0B8E048E
:1002B400EF5401A2E0CC13CC13CCFDEE6204EF6248
:1002C40005EDC313FE7F00EC6206ED62078E05E4C4
:1002D4006206ED6207EE4F60068E048F0580047C93
:1002E400E17DAC8C0A8D0B8E8222AF827E00C3EE40
:1002F4009F50107CD07D071CBCFF011DEC4D70F796
:100304000E80EB22AE82AF837D01E50C2482501473
:10031400AA0EAB0FAC108A828B838CF0E4120A5DB8
:1003240075820222E50820E20302044F8E828F8345
:10033400E0FC74205CF51575160074022EF9E43F98
:10034400FA7514007C03751200850C1C8E828F8351
:10035400C007C006C004C002C00112024585821154
:10036400D001D002D004D006D0070516E5167003DC
:100374007516FFE511604FC007C006C004C002C077
:10038400011202AEA882D001D002D004D006D00758
:100394008CF005F07401800225E0D5F0FB1458F5CB
:1003A40082C007C006C004C002C0011202EED00120
:1003B400D002D004D006D007BC050050010C0512B1
:1003C400E51224FB5083E5116015A80EAB0FAC10A9
:1003D40088828B838CF0E516120A5D85118222E5F2
:1003E400157015A80EAB0FAC1088828B838CF0E5CA
:1003F40016120A5D7582002289828A83E0F582C022
:1004040007C006C002C001120647E582D001D0022F
:10041400D006D0076015A80EAB0FAC1088828B8372
:100424008CF0E516120A5D758200220514E5142489
:10043400FC4003020348AA0EAB0FAC108A828B83E4
:100444008CF0E516120A5D75820122AC0D0C8C133A
:100454007B00C3EB95135034850C1C8E828F83C0B4
:1004640007C006C003120245AD82D003D006D007F0
:10047400A80EA90FAA108B040C888289838AF0EC39
:10048400120A5DED7003F582220B80C68D8222E58F
:10049400E920E20475820022E5D9FF6005EF24809B
:1004A400500A75E1ED75E900758200227E00C3EE05
:1004B4009F50317C007D0090619BE0701774012C8B
:1004C400FAE43DFB8A048B05EA4B70EB75E1EDF52C
:1004D400E9F58222EE2401F582E43400F583E5D9BE
:1004E400F00E80CA75E90090619BE0600375E1ED50
:1004F4008F8222AF827582FEC0071200E3AE190E0E
:100504008E82C0061200E3D006D0078F82C007C0D7
:10051400061200E3D006D007EE62077E00C3EE9514
:1005240019502CEE2517FCE43518FD8C828D83E0E0
:10053400F582C007C006C005C0041200E3D004D091
:1005440005D006D0078C828D83E062070E80CE8FA3
:10055400820200E3AF828F060E74846EFD7582FE04
:10056400C007C006C0051200E3D005D0068E82C0C5
:10057400051200E37582841200E3D005D0078F06CC
:100584007F00EE24FEFBEF34FFFCEB2401FBEC3494
:1005940000FC8B828C83E0F582C007C006C005C0D6
:1005A40004C0031200E3D003D004D005D006D00762
:1005B4008B828C83E0FBED6203EE24FFFCEF34FFBF
:1005C400FDEC2401FCED3400FD8C828D83E0F5828A
:1005D400C007C006C005C004C0031200E3D003D0A6
:1005E40004D005D006D0078C828D83E06BFD7C009F
:1005F4008C027B0074022AFAE43BFBC3EA9EEB64A0
:10060400808FF063F08095F05034EC2401FAE434E8
:1006140000FB8A828B83E0F582C007C006C005C058
:1006240004C003C0021200E3D002D003D004D005FA
:10063400D006D0078A828B83E062050C80B28D825B
:100644000200E3AF827D007E00C007C006C0051231
:100654000493AC82D005D006D007BC0200403DBC58
:1006640005004027900001E0FB530307BB021C8CEC
:1006740003EB142401F582E43400F583E030E70B46
:10068400900003E0B50704758201228C82C007C084
:1006940006C005120558D005D006D0070DBD0001CF
:1006A4000EC3ED9470EE9417409F758200227F0074
:1006B4007E007D00C007C006C0051200B41200D041
:1006C40090012974FFF090012AF090012BF0900121
:1006D4002CF090012DE4F090012EF090012FF09079
:1006E4000130F0900131F0900132F0900133F0903C
:1006F4000134F090012912012475820B1201E59056
:100704000119E4F090011A7407F0751719751801AE
:100714007519027582801204F7D005D006D007C07F
:1007240007C006C005120493AC82D005D006D007DA
:10073400BC020040118C82C007C006C005120558D7
:10074400D005D006D007C007C006C0051200EFE5EB
:1007540082D005D006D00760C6C007C006C0051207
:1007640000F6AC82D005D006D007BF0002800ABFD5
:100774000102800CBF02A88019BCFEA37F01809FE8
:100784008C067D007F02EC6005EC247650917F009E
:10079400808D8D030DEB248DF582E43400F583EC1C
:1007A400F08E037C000BBB00010C8D017A00C3E9C1
:1007B4009BEA64808CF063F08095F0500302072379
:1007C40090008DE0FC8E037A00C3EA9E5010EA2468
:1007D4008DF582E43400F583E062030A80EBEE24B5
:1007E4008DF582E43400F583E0FAEBB50202800370
:1007F400020A58BC0125900119E4F090011A74070B
:10080400F0751719751801751902758281C006C033
:10081400051204F7D005D006020A58BC0228BE020D
:1008240000402390008EE0F582C006C0051201E569
:100834007517197518017519007582821204F7D09D
:1008440005D006020A58BC0341751A008E031B8B9F
:100854000C750E1A750F0075104085090D90008EE9
:10086400C006C005120308AB82900119EBF0900199
:100874001AE51AF07517197518017519027582832E
:100884001204F7D005D006020A58BC0430BE020098
:10089400402B90008EE0600543080180035308FE5E
:1008A400C006C0051200FF751719751801751900E7
:1008B4007582821204F7D005D006020A58BC0525B9
:1008C400BE0D00402090008EC006C00512012475A4
:1008D40017197518017519007582821204F7D0056D
:1008E400D006020A58BC0632BE0300402D90008E8A
:1008F400E0FB74075BF50890008FE0F509C006C0C3
:10090400051200FF75171975180175190075828293
:100914001204F7D005D006020A58BC07028003026D
:1009240009AC900119E508F090011AE509F090610D
:1009340072E090011BF0906173E090011CF09061F3
:1009440074E090011DF0906175E090011EF09061DB
:100954006AE090011FF090616BE0900120F09061DB
:100964006CE0900121F090616DE0900122F09061C3
:100974006EE0900123F090616FE0900124F09061AB
:1009840070E0900125F0906171E0900126F07517F8
:100994001975180175190E758285C006C0051204F3
:1009A400F7D005D006020A58BC0849BE02004044EC
:1009B400751B008E031B1B8B0C90008EE0F50D75D0
:1009C4000E1B750F0075104090008FC006C00512F5
:1009D4000308AB82900119EBF090011AE51BF07546
:1009E40017197518017519027582831204F7D00559
:1009F400D0068060BC0926BE0200402190008EE033
:100A0400906190F075171975180175190075828237
:100A1400C006C0051204F7D005D0068037BC0A34DE
:100A2400BE0200402F90008EE0600A90618AE0438D
:100A3400E004F0800890618AE053E0FBF075171938
:100A4400751801751900758282C006C0051204F775
:090A5400D005D0067F0002072343
:06007B00E478FFF6D8FD59
:100059007900E94400601B7A00900A7C783575A024
:1000690001E493F2A308B8000205A0D9F4DAF27505
:02007900A0FFE6
:100A5D0020F71130F6138883A88220F509F6A883B4
:0B0A6D007583002280FEF280F5F0226D
:100081007800E84400600A790175A000E4F309D81A
:10009100FC7834E84401600C7902900001E4F0A39B
:0400A100D8FCD9FAB4
:0D004C0075811C120A78E5826003020049EC
:040A78007582002261
:00000001FF
