:0300000002004CAF
:200008000000E2FBEAF2802C0000E0FBEAF08024E6B50202EBF62200E2B50202EBF22200DE
:20002800E0B50202EBF02230F6E0A88220F5D3EAC6F582228B822230F6E6A88220F5D980EE
:01004800CFE8
:0300A5000200490D
:0300490002025060
:2000A80075C6807E007F00E59D20E60F74012EFCE43FFD8C068D07EC4D70EC2275F10043A4
:2000C800F30C7586C075C40275C50B75C2D8228582C1E58630E1FB5386FD22E5865404F5BE
:2000E8008222E58630E2FB85C18222AF829061897440F0906180E4F09061FA7409F0906115
:20010800B27415F09061AEE4F09061AB743FF09061AC7455F09061B57410F09061B6740E61
:20012800F09061B77403F0BF0B0050027F0BEF24E550027F1AEF24F575F005A4240B9061F9
:200148008FF090619074F5F075E1ED75E1E322AE82AF837D0075E1EEAC0D0C0C8CD97C00CB
:20016800C3EC950D500EEC2EF582E43FF583E0F5D90C80EC75910075E1E97E007F00E591BE
:2001880030E1047D01800E0EBE00010FC3EE9460EF94EA40E975E1E3ED60047F0080027F15
:2001A800018F8222E5E920E20475820022E5D9FF6005EF2480500A75E1ED75E9007582006F
:2001C800227E00C3EE9F5010EE2401F582E43400F583E5D9F00E80EB75E90090619BE0605C
:2001E8000375E1ED8F8222AF827582FEC0071200D7AE0A0E8E82C0061200D7D006D0078FE7
:2002080082C007C0061200D7D006D007EE62077E00C3EE950A502CEE2508FCE43509FD8CCE
:20022800828D83E0F582C007C006C005C0041200D7D004D005D006D0078C828D83E0620711
:200248000E80CE8F820200D77F008F0B8F0CC0071200A81200C475820B1200F3900119E4B0
:20026800F090011A04F0750819750901750A027582801201EFD007C0071201ACAC82D00776
:20028800BC020050030203847582FEC007C0041200D7D0048C030B8B82C004C0031200D768
:2002A8007582841200D7D003D0046303848C027C00EA24FEF8EC34FFF9E82401F8E93400F9
:2002C800F988828983E0F582C004C003C002C001C0001200D7D000D001D002D003D004885B
:2002E800828983E0F8EB6200EA24FFFBEC34FFFEEB2401FBEE3400FE8B828E83E0F582C0BE
:2003080006C004C003C002C0001200D7D000D002D003D004D006D0078B828E83E068FE7B08
:20032800008B007900740228F8E439F9C3E89AE964808CF063F08095F05038EB2401F8E4AB
:200348003400F988828983E0F582C007C006C004C003C002C001C0001200D7D000D001D04A
:2003680002D003D004D006D00788828983E062060B80AE8E82C0071200D7D007C007120018
:20038800E3E582D007700302027FC0071200EAAE82D007BF0002800DBF01028015BF02020C
:2003A800802702027FBEFE02800302027F7F0102027F8E0B750C007F02EE6008EE2476408B
:2003C8000302027F7F0002027FAD0C050CED248DF582E43400F583EEF0AD0B7E000DBD0040
:2003E800010EAB0C7C00C3EB9DEC64808EF063F08095F0500302027F90008DE0FEBE011B17
:20040800900119E4F090011A04F0750819750901750A027582811201EF8069BE021E900050
:200428008EE0F5821200F3900119E4F0750819750901F50A7582821201EF8048BE0323AD64
:200448000B1D8D0D90008E120157AD82900119EDF0750819750901750A017582831201EF83
:200468008022BE041F90008EE060027401906180F0900119E4F0750819750901F50A758232
:09048800821201EF7F0002027FE5
:06007B00E478FFF6D8FD59
:200059007900E94400601B7A00900495781C75A001E493F2A308B8000205A0D9F4DAF27598
:02007900A0FFE6
:200081007800E84400600A790175A000E4F309D8FC781BE84401600C7902900001E4F0A35F
:0400A100D8FCD9FAB4
:0D004C0075810D120491E5826003020049E8
:04049100758200224E
:00000001FF
