:0300000002004CAF
:100008000000E2FBEAF2802C0000E0FBEAF080242A
:10001800E6B50202EBF62200E2B50202EBF222009C
:10002800E0B50202EBF02230F6E0A88220F5D3EA30
:10003800C6F582228B822230F6E6A88220F5D98086
:01004800CFE8
:0300490002038728
:0D004C007581171207CFE58260030200499D
:100059007900E94400601B7A009007D3783575A0D0
:1000690001E493F2A308B8000205A0D9F4DAF27505
:02007900A0FFE6
:06007B00E478FFF6D8FD59
:100081007800E84400600A790175A000E4F309D81A
:10009100FC7834E84401600C7902900001E4F0A39B
:0400A100D8FCD9FAB4
:0900A5007508007509000200490C
:1000AE0075C6807E007F00E59D20E60F74012EFC54
:1000BE00E43FFD8C068D07EC4D70EC2275F100438C
:1000CE00F30C7586C075C40275C50B75C2D8228532
:1000DE0082C1E58630E1FB5386FD22E5865404F5A8
:1000EE008222E58630E2FB85C18222E50830E004FB
:1000FE007F0180027F00906180EFF0E50830E1041F
:10010E007F2080027F0090618974404FF022AE8282
:10011E00AF83E0906172F08E828F83A3E090617363
:10012E00F08E828F83A3A3E0906174F08E828F8312
:10013E00A3A3A3E0906175F08E828F83A3A3A3A3E4
:10014E00E090616AF08E828F83A3A3A3A3A3E090B5
:10015E00616BF074062EF582E43FF583E090616CDE
:10016E00F074072EF582E43FF583E090616DF07434
:10017E00082EF582E43FF583E090616EF074092E4F
:10018E00F582E43FF583E090616FF0740A2EF582FC
:10019E00E43FF583E0906170F0740B2EF582E43F3E
:1001AE00F583E0906171F022AF82C0071200F9D0A2
:1001BE00079061FA7409F09061B27415F09061AE17
:1001CE00E4F09061AB743FF09061AC7455F09061C7
:1001DE00B57410F09061B6740EF09061B77403F0C0
:1001EE00BF0B0050027F0BEF24E550027F1AEF2465
:1001FE00F575F005A4240B90618FF090619074F565
:10020E00F075E1ED75E1E322AE82AF837D00E51777
:10021E00248250047582022275E1EEAC170C0C8C10
:10022E00D97C00C3EC9517500EEC2EF582E43FF509
:10023E0083E0F5D90C80EC759100E50830E2047F7F
:10024E00EA80027FE98FE17E007F00E59130E104D4
:10025E007D01800E0EBE00010FC3EE9460EF94EA96
:10026E0040E975E1E3ED60047F0080027F018F823B
:10027E0022AE82AF837D01E50A24825014AA0CAB14
:10028E000DAC0E8A828B838CF0E41207B475820259
:10029E0022AC0B0C8C0F7B00C3EB950F5034850AF0
:1002AE00178E828F83C007C006C003120216AD825E
:1002BE00D003D006D007A80CA90DAA0E8B040C886B
:1002CE008289838AF0EC1207B4ED7003F582220B5B
:1002DE0080C68D8222E5E920E20475820022E5D9EE
:1002EE00FF6005EF2480500A75E1ED75E900758217
:1002FE0000227E00C3EE9F5010EE2401F582E434FE
:10030E0000F583E5D9F00E80EB75E90090619BE076
:10031E00600375E1ED8F8222AF827582FEC00712F7
:10032E0000DDAE120E8E82C0061200DDD006D007A2
:10033E008F82C007C0061200DDD006D007EE62071E
:10034E007E00C3EE9512502CEE2510FCE43511FD07
:10035E008C828D83E0F582C007C006C005C00412F2
:10036E0000DDD004D005D006D0078C828D83E062EC
:10037E00070E80CE8F820200DD7513007E008E1474
:10038E00C0061200AE1200CA90012974FFF090014F
:10039E002AF090012BF090012CF090012DE4F090BA
:1003AE00012EF090012FF0900130F0900131F0907D
:1003BE000132F0900133F0900134F09001291201D6
:1003CE001C75820B1201B6900119E4F090011A749B
:1003DE0002F0751019751101F5127582801203263F
:1003EE00D006C0061202E3AC82D006BC0200500357
:1003FE000204F57582FEC006C0041200DDD0048C26
:10040E00030B8B82C004C0031200DD7582841200C0
:10041E00DDD003D0046303848C027C00EA24FEF852
:10042E00EC34FFF9E82401F8E93400F98882898375
:10043E00E0F582C004C003C002C001C0001200DD9E
:10044E00D000D001D002D003D00488828983E0F896
:10045E00EB6200EA24FFFBEC34FFFDEB2401FBED25
:10046E003400FD8B828D83E0F582C005C004C0038D
:10047E00C002C0001200DDD000D002D003D004D0E4
:10048E0005D0068B828D83E068FD7B008B007900A2
:10049E00740228F8E439F9C3E89AE964808CF063B1
:1004AE00F08095F05038EB2401F8E43400F988829E
:1004BE008983E0F582C006C005C004C003C002C037
:1004CE0001C0001200DDD000D001D002D003D00454
:1004DE00D005D00688828983E062050B80AE8D82BE
:1004EE00C0061200DDD006C0061200E9E582D00675
:1004FE0070030203F0C0061200F0AF82D006E4B51E
:10050E00130280117401B5130280187402B5130220
:10051E00802A0203F0BFFE0280030203F07513016E
:10052E000203F08F06751400751302EF6008EF24B6
:10053E007640030203F07513000203F0AD140514A8
:10054E00ED248DF582E43400F583EFF08E057F0007
:10055E000DBD00010FAB147C00C3EB9DEC64808FCE
:10056E00F063F08095F050030203F090008DE0FFF1
:10057E008E057C00C3EC9E5010EC248DF582E43485
:10058E0000F583E062050C80EBEE248DF582E434F9
:10059E0000F583E0FCEDB5040280030207AEBF0157
:1005AE0020900119E4F090011A7402F0751019757B
:1005BE001101F512758281C006120326D0060207BC
:1005CE00AEBF0224BE0200401F90008EE0F582C036
:1005DE00061201B675101975110175120075828219
:1005EE00120326D0060207AEBF033D7515008E0519
:1005FE001D8D0A750C15750D00750E4085090B9035
:10060E00008EC00612027FAD82900119EDF09001AE
:10061E001AE515F0751019751101751202758283A0
:10062E00120326D0060207AEBF042CBE02004027DE
:10063E0090008EE0600543080180035308FEC0065B
:10064E001200F9751019751101751200758282125A
:10065E000326D0060207AEBF0521BE0D00401C903A
:10066E00008EC00612011C7510197511017512004D
:10067E00758282120326D0060207AEBF062EBE0377
:10068E0000402990008EE0FD74075DF50890008F04
:10069E00E0F509C0061200F97510197511017512F1
:1006AE0000758282120326D0060207AEBF070280B3
:1006BE0003020743900119E508F090011AE509F0CD
:1006CE00906172E090011BF0906173E090011CF05C
:1006DE00906174E090011DF0906175E090011EF044
:1006EE0090616AE090011FF090616BE0900120F044
:1006FE0090616CE0900121F090616DE0900122F02C
:10070E0090616EE0900123F090616FE0900124F013
:10071E00906170E0900125F0906171E0900126F0FB
:10072E0075101975110175120E758285C0061203AA
:10073E0026D006806BBF0845BE02004040751600ED
:10074E008E051D1D8D0A90008EE0F50B750C16752D
:10075E000D00750E4090008FC00612027FAD829084
:10076E000119EDF090011AE516F0751019751101C9
:10077E00751202758283120326D0068023BF0920CC
:10078E00BE0200401B90008EE0906190F075101933
:10079E00751101751200758282C006120326D006ED
:0607AE007513000203F0C8
:1007B40020F71130F6138883A88220F509F6A88360
:0B07C4007583002280FEF280F5F02219
:0407CF00758200220D
:00000001FF
