:0300000002004CAF
:100008000000E2FBEAF2802C0000E0FBEAF080242A
:10001800E6B50202EBF62200E2B50202EBF222009C
:10002800E0B50202EBF02230F6E0A88220F5D3EA30
:10003800C6F582228B822230F6E6A88220F5D98086
:01004800CFE8
:1000A500750800750900750AE1750BACE4F50CF5EA
:0800B5000DF50EF50F020049E4
:030049000206D6D6
:1000BD0075C6807E007F00E59D20E60F74012EFC45
:1000CD00E43FFD8C068D07EC4D70EC2275F100437D
:1000DD00F30C7586C075C40275C50B75C2D8228523
:1000ED0082C1E58630E1FB5386FD22E5865404F599
:1000FD008222E58630E2FB85C18222E50830E004EC
:10010D007F0180027F00906180740C4FF0E5083014
:10011D00E1047F2080027F0090618974404FF022BE
:10012D00AE82AF83E0906172F08E828F83A3E090F8
:10013D006173F08E828F83A3A3E0906174F08E8241
:10014D008F83A3A3A3E0906175F074042EFCE43FAC
:10015D00FD8C828D83E090616AF074052EFAE43F88
:10016D00FB8A828B83E090616BF074062EF582E43E
:10017D003FF583E090616CF074072EF582E43FF556
:10018D0083E090616DF074082EF582E43FF583E015
:10019D0090616EF074092EF582E43FF583E0906175
:1001AD006FF0740A2EF582E43FF583E0906170F0F4
:1001BD00740B2EF582E43FF583E0906171F08C8233
:1001CD008D83E0FC7F008A828B83E0FEE44CF50A90
:1001DD00EE4FF50BE50A450B7006750AE1750BAC94
:1001ED0022AF82C007120108D0079061FA7409F09E
:1001FD009061B27415F09061AEE4F09061AB743F14
:10020D00F09061AC7455F09061B57410F09061B6DA
:10021D00740EF09061B77403F0BF0B0050027F0BAA
:10022D00EF24E550027F1AEF24F575F005A4240B99
:10023D0090618FF090619074F5F075E1ED75E1E3EB
:10024D0022AE82AF837D00E51F24825004758202A9
:10025D002275E1EEAC1F0C0C8CD97C00C3EC951F04
:10026D00500EEC2EF582E43FF583E0F5D90C80ECD1
:10027D00759100E50830E2047FEA80027FE98FE1A5
:10028D007E007F00E59130E1047D01800E0EBE0001
:10029D00010FC3EE9460EF94EA40E975E1E3ED6080
:1002AD00047F0080027F018F8222AE0AAF0B8E0485
:1002BD00EF5401A2E0CC13CC13CCFDEE6204EF623F
:1002CD0005EDC313FE7F00EC6206ED62078E05E4BB
:1002DD006206ED6207EE4F60068E048F0580047C8A
:1002ED00E17DAC8C0A8D0B8E8222AF827E00C3EE37
:1002FD009F50107CD07D071CBCFF011DEC4D70F78D
:10030D000E80EB228582158583167D01E5102482F2
:10031D005014AA12AB13AC148A828B838CF0E412A6
:10032D000ABA75820222E50820E2030204788515D7
:10033D0082851683E0FC74205CF519E4FBFA7402E7
:10034D002515F8E43516F98B187C037F0085101FF1
:10035D00851582851683C007C004C003C002C00185
:10036D00C00012024E858217D000D001D002D003FA
:10037D00D004D0070BEB70027BFFE5176058C00768
:10038D00C004C003C002C001C0001202B7AE82D0CB
:10039D0000D001D002D003D004D0078CF005F0744A
:1003AD0001800225E0D5F0FB145EF582C007C00484
:1003BD00C003C002C001C0001202F7D000D001D0AE
:1003CD0002D003D004D007BC050050010C0FEF2460
:1003DD00FB400302035AE5176014AC12AE13AF14C1
:1003ED008C828E838FF0EB120ABA85178222E51963
:1003FD007014AC12AE13AF148C828E838FF0EB128F
:10040D000ABA7582002288828983E0F582C003C012
:10041D0002C001C00012066BE582D000D001D002EF
:10042D00D003601FEA6008050CE4B50C02050DACA5
:10043D0012AE13AF148C828E838FF0EB120ABA7545
:10044D008200220518E518FA24FC40030203560524
:10045D000EE4B50E02050FAC12AE13AF148C828EE6
:10046D00838FF0EB120ABA75820122AF110F7E0055
:10047D00C3EE9F503285101F851582851683C007E8
:10048D00C00612024EAD82D006D007AA12AB13AC35
:10049D00148E01098A828B838CF0E9120ABAED70F1
:1004AD0003F582220E80C98D8222E5E920E20475D2
:1004BD00820022E5D9FF6005EF2480500A75E1ED39
:1004CD0075E900758200227E00C3EE9F50317C00DD
:1004DD007D0090619BE0701774012CFAE43DFB8A5E
:1004ED00048B05EA4B70EB75E1EDF5E9F58222EE33
:1004FD002401F582E43400F583E5D9F00E80CA7548
:10050D00E90090619BE0600375E1ED8F8222AF827F
:10051D007582FEC0071200ECAE1C0E8E82C0061254
:10052D0000ECD006D0078F82C007C0061200ECD0B9
:10053D0006D007EE62077E00C3EE951C502CEE250B
:10054D001AFCE4351BFD8C828D83E0F582C007C05B
:10055D0006C005C0041200ECD004D005D006D007AB
:10056D008C828D83E062070E80CE8F820200ECAF0D
:10057D00828F060E74846EFD7582FEC007C006C0A4
:10058D00051200ECD005D0068E82C0051200EC7568
:10059D0082841200ECD005D0078F067F00EE24FE7A
:1005AD00FBEF34FFFCEB2401FBEC3400FC8B828C65
:1005BD0083E0F582C007C006C005C004C003120069
:1005CD00ECD003D004D005D006D0078B828C83E00D
:1005DD00FBED6203EE24FFFCEF34FFFDEC2401FC88
:1005ED00ED3400FD8C828D83E0F582C007C006C01E
:1005FD0005C004C0031200ECD003D004D005D00612
:10060D00D0078C828D83E06BFD7C008C027B0074A7
:10061D00022AFAE43BFBC3EA9EEB64808FF063F0A1
:10062D008095F05034EC2401FAE43400FB8A828B7F
:10063D0083E0F582C007C006C005C004C003C00238
:10064D001200ECD002D003D004D005D006D0078A1A
:10065D00828B83E062050C80B28D820200ECAF824A
:10066D007D007E00C007C006C0051204B7AC82D065
:10067D0005D006D007BC0200403DBC0500402790C8
:10068D000001E0FB530307BB021C8C03EB14240198
:10069D00F582E43400F583E030E70B900003E0B51C
:1006AD000704758201228C82C007C006C0051205A1
:1006BD007CD005D006D0070DBD00010EC3ED9470A2
:1006CD00EE9417409F758200227F007E007D00C052
:1006DD0007C006C0051200BD1200D990012974FF94
:1006ED00F090012AF090012BF090012CF090012D4B
:1006FD00E4F090012EF090012FF0900130F0900178
:10070D0031F0900132F0900133F0900134F090010E
:10071D002912012D75820B1201EE900119E4F09052
:10072D00011A7408F0751A19751B01751C02758272
:10073D008012051BD005D006D007C007C006C00526
:10074D001204B7AC82D005D006D007BC0200401110
:10075D008C82C007C006C00512057CD005D006D01E
:10076D0007C007C006C0051200F8E582D005D00607
:10077D00D00760C6C007C006C0051200FFAC82D00E
:10078D0005D006D007BF0002800ABF0102800CBF52
:10079D0002A88019BCFEA37F01809F8C067D007F7F
:1007AD0002EC6005EC247650917F00808D8D030D59
:1007BD00EB248DF582E43400F583ECF08E037C00A0
:1007CD000BBB00010C8D017A00C3E99BEA64808CA0
:1007DD00F063F08095F0500302074790008DE0FC28
:1007ED008E037A00C3EA9E5010EA248DF582E4341C
:1007FD0000F583E062030A80EBEE248DF582E4348C
:10080D0000F583E0FAEBB502028003020AB5BC01E4
:10081D0025900119E4F090011A7408F0751A1975F4
:10082D001B01751C02758281C006C00512051BD007
:10083D0005D006020AB5BC0228BE02004023900076
:10084D008EE0F582C006C0051201EE751A19751BF2
:10085D0001751C0075828212051BD005D006020A97
:10086D00B5BC0341751D008E031B8B1075121D75D4
:10087D00130075144085091190008EC006C0051235
:10088D000311AB82900119EBF090011AE51DF07583
:10089D001A19751B01751C0275828312051BD00573
:1008AD00D006020AB5BC0430BE0200402B90008E6B
:1008BD00E0600543080180035308FEC006C0051221
:1008CD000108751A19751B01751C007582821205B8
:1008DD001BD005D006020AB5BC0525BE0D00402073
:1008ED0090008EC006C00512012D751A19751B01D9
:1008FD00751C0075828212051BD005D006020AB543
:10090D00BC0632BE0300402D90008EE0FB74075BE9
:10091D00F50890008FE0F509C006C00512010875B5
:10092D001A19751B01751C0075828212051BD005E5
:10093D00D006020AB5BC070280030209D090011946
:10094D00E508F090011AE509F0906172E090011B45
:10095D00F0906173E090011CF0906174E090011DC6
:10096D00F0906175E090011EF090616AE090011FBA
:10097D00F090616BE0900120F090616CE0900121AE
:10098D00F090616DE0900122F090616EE090012396
:10099D00F090616FE0900124F0906170E09001257E
:1009AD00F0906171E0900126F0751A19751B0175B3
:1009BD001C0E758285C006C00512051BD005D0061C
:1009CD00020AB5BC084ABE02004045751E008E03E2
:1009DD001B1B8B1090008EE0F51175121E75130008
:1009ED0075144090008FC006C005120311AB8290A4
:1009FD000119EBF090011AE51EF0751A19751B011E
:100A0D00751C0275828312051BD005D006020AB52E
:100A1D00BC0926BE0200402190008EE0906190F04E
:100A2D00751A19751B01751C00758282C006C005EB
:100A3D0012051BD005D006806FBC0A36BE020040E1
:100A4D003190008EE0600A90618AE043E004F0800E
:100A5D000890618AE053E0FBF0751A19751B01755A
:100A6D001C00758282C006C00512051BD005D0067C
:100A7D008036BC0B33AC0C900119ECF0AC0D900131
:100A8D001AECF0AC0E90011BECF0AC0F90011CECCD
:100A9D00F0751A19751B01751C04758286C006C088
:0D0AAD000512051BD005D0067F000207478B
:06007B00E478FFF6D8FD59
:100059007900E94400601B7A00900AD9783575A0C7
:1000690001E493F2A308B8000205A0D9F4DAF27505
:02007900A0FFE6
:100ABA0020F71130F6138883A88220F509F6A88357
:0B0ACA007583002280FEF280F5F02210
:100081007800E84400600A790175A000E4F309D81A
:10009100FC7834E84401600C7902900001E4F0A39B
:0400A100D8FCD9FAB4
:0D004C0075811F120AD5E58260030200498C
:040AD5007582002204
:00000001FF
