:0300000002004CAF
:100008000000E2FBEAF2802C0000E0FBEAF080242A
:10001800E6B50202EBF62200E2B50202EBF222009C
:10002800E0B50202EBF02230F6E0A88220F5D3EA30
:10003800C6F582228B822230F6E6A88220F5D98086
:01004800CFE8
:030049000203AA05
:0D004C007581171207F4E582600302004978
:100059007900E94400601B7A009007F8783575A0AB
:1000690001E493F2A308B8000205A0D9F4DAF27505
:02007900A0FFE6
:06007B00E478FFF6D8FD59
:100081007800E84400600A790175A000E4F309D81A
:10009100FC7834E84401600C7902900001E4F0A39B
:0400A100D8FCD9FAB4
:0900A5007508007509000200490C
:1000AE0075C6807E007F00E59D20E60F74012EFC54
:1000BE00E43FFD8C068D07EC4D70EC2275F100438C
:1000CE00F30C7586C075C40275C50B75C2D8228532
:1000DE0082C1E58630E1FB5386FD22E5865404F5A8
:1000EE008222E58630E2FB85C18222E50830E004FB
:1000FE007F0180027F00906180740C4FF0E5083024
:10010E00E1047F2080027F0090618974404FF022CD
:10011E00AE82AF83E0906172F08E828F83A3E09007
:10012E006173F08E828F83A3A3E0906174F08E8250
:10013E008F83A3A3A3E0906175F08E828F83A3A318
:10014E00A3A3E090616AF08E828F83A3A3A3A3A3DF
:10015E00E090616BF074062EF582E43FF583E0903B
:10016E00616CF074072EF582E43FF583E090616DCB
:10017E00F074082EF582E43FF583E090616EF07422
:10018E00092EF582E43FF583E090616FF0740A2E3C
:10019E00F582E43FF583E0906170F0740B2EF582EA
:1001AE00E43FF583E0906171F022AF82C007120048
:1001BE00F9D0079061FA7409F09061B27415F0905D
:1001CE0061AEE4F09061AB743FF09061AC7455F0A9
:1001DE009061B57410F09061B6740EF09061B774C2
:1001EE0003F0BF0B0050027F0BEF24E550027F1A85
:1001FE00EF24F575F005A4240B90618FF0906190BB
:10020E0074F5F075E1ED75E1E322AE82AF837D000A
:10021E00E517248250047582022275E1EEAC170CAC
:10022E000C8CD97C00C3EC9517500EEC2EF582E4A5
:10023E003FF583E0F5D90C80EC759100E50830E2CE
:10024E00047FEA80027FE98FE17E007F00E5913036
:10025E00E1047D01800E0EBE00010FC3EE9460EF2F
:10026E0094EA40E975E1E3ED60047F0080027F01CE
:10027E008F8222AE82AF837D01E50A24825014AABA
:10028E000CAB0DAC0E8A828B838CF0E41207D97501
:10029E00820222AC0B0C8C0F7B00C3EB950F5034FB
:1002AE00850A178E828F83C007C006C003120218FC
:1002BE00AD82D003D006D007A80CA90DAA0E8B04D0
:1002CE000C888289838AF0EC1207D9ED7003F582CF
:1002DE00220B80C68D8222E5E920E204758200227F
:1002EE00E5D9FF6005EF2480500A75E1ED75E90050
:1002FE00758200227E00C3EE9F50317C007D0090FF
:10030E00619BE0701774012CFAE43DFB8A048B05A7
:10031E00EA4B70EB75E1EDF5E9F58222EE2401F57D
:10032E0082E43400F583E5D9F00E80CA75E90090B9
:10033E00619BE0600375E1ED8F8222AF827582FED4
:10034E00C0071200DDAE120E8E82C0061200DDD086
:10035E0006D0078F82C007C0061200DDD006D00778
:10036E00EE62077E00C3EE9512502CEE2510FCE4D3
:10037E003511FD8C828D83E0F582C007C006C00565
:10038E00C0041200DDD004D005D006D0078C828DBB
:10039E0083E062070E80CE8F820200DD7513007E31
:1003AE00008E14C0061200AE1200CA90012974FF0E
:1003BE00F090012AF090012BF090012CF090012D7D
:1003CE00E4F090012EF090012FF0900130F09001AA
:1003DE0031F0900132F0900133F0900134F0900141
:1003EE002912011E75820B1201B8900119E4F090CA
:1003FE00011A7404F07510197511017512027582C7
:10040E0080120349D006C0061202E5AC82D006BCAB
:10041E00020050030205197582FEC006C0041200C8
:10042E00DDD0048C030B8B82C004C0031200DD757B
:10043E0082841200DDD003D0046303848C027C001E
:10044E00EA24FEF8EC34FFF9E82401F8E93400F967
:10045E0088828983E0F582C004C003C002C001C057
:10046E00001200DDD000D001D002D003D00488826B
:10047E008983E0F8EB6200EA24FFFBEC34FFFDEB2E
:10048E002401FBED3400FD8B828D83E0F582C005E7
:10049E00C004C003C002C0001200DDD000D002D0E4
:1004AE0003D004D005D0068B828D83E068FD7B00DF
:1004BE008B007900740228F8E439F9C3E89AE964EC
:1004CE00808CF063F08095F05038EB2401F8E43422
:1004DE0000F988828983E0F582C006C005C004C099
:1004EE0003C002C001C0001200DDD000D001D00256
:1004FE00D003D004D005D00688828983E062050B34
:10050E0080AE8D82C0061200DDD006C0061200E954
:10051E00E582D0067003020414C0061200F0AF820A
:10052E00D006E4B5130280117401B513028018745D
:10053E0002B51302802A020414BFFE0280030204D5
:10054E00147513010204148F06751400751302EF4F
:10055E006008EF247640030204147513000204149D
:10056E00AD140514ED248DF582E43400F583EFF01F
:10057E008E057F000DBD00010FAB147C00C3EB9DFB
:10058E00EC64808FF063F08095F0500302041490B9
:10059E00008DE0FF8E057C00C3EC9E5010EC248D88
:1005AE00F582E43400F583E062050C80EBEE248DD9
:1005BE00F582E43400F583E0FCEDB504028003021D
:1005CE0007D3BF0121900119E4F090011A7404F0D1
:1005DE00751019751101751202758281C00612030C
:1005EE0049D0060207D3BF0224BE0200401F90006E
:1005FE008EE0F582C0061201B875101975110175DD
:10060E001200758282120349D0060207D3BF033D42
:10061E007515008E051D8D0A750C15750D00750E60
:10062E004085090B90008EC006120281AD829001AA
:10063E0019EDF090011AE515F07510197511017587
:10064E001202758283120349D0060207D3BF042C0F
:10065E00BE0200402790008EE06005430801800333
:10066E005308FEC0061200F97510197511017512A6
:10067E0000758282120349D0060207D3BF0521BE40
:10068E000D00401C90008EC00612011E75101975CB
:10069E001101751200758282120349D0060207D32A
:1006AE00BF062EBE0300402990008EE0FD74075D4C
:1006BE00F50890008FE0F509C0061200F9751019C3
:1006CE00751101751200758282120349D006020758
:1006DE00D3BF07028003020768900119E508F09066
:1006EE00011AE509F0906172E090011BF0906173C0
:1006FE00E090011CF0906174E090011DF090617526
:10070E00E090011EF090616AE090011FF090616B25
:10071E00E0900120F090616CE0900121F090616D0D
:10072E00E0900122F090616EE0900123F090616FF5
:10073E00E0900124F0906170E0900125F0906171DD
:10074E00E0900126F075101975110175120E758263
:10075E0085C006120349D006806BBF0845BE020055
:10076E0040407516008E051D1D8D0A90008EE0F519
:10077E000B750C16750D00750E4090008FC006128D
:10078E000281AD82900119EDF090011AE516F07517
:10079E001019751101751202758283120349D00664
:1007AE008023BF0920BE0200401B90008EE09061A6
:1007BE0090F0751019751101751200758282C006C0
:0B07CE00120349D0067513000204144A
:1007D90020F71130F6138883A88220F509F6A8833B
:0B07E9007583002280FEF280F5F022F4
:0407F40075820022E8
:00000001FF
